:10000000A6C1B0C9DEC500C6C7C1C6C1C5C1C4C18D
:10001000C3C1C2C1C1C1E2C9BFC1BEC1BDC1BCC1B2
:10002000BBC196C364C386C343C342C341C379C340
:100030003FC34DC33DC33CC39CC33AC339C338C35C
:1000400037C39BC335C384C333C332C331C330C347
:1000500031C33E2000202D3E2000202D3E20616334
:100060006B0A00204C6F636B3A2000204D487A20C9
:1000700000204020002067002069004375727265EF
:100080006E7420636F6E66696775726174696F6EF6
:100090003A0A00636F6E666967206661696C656421
:1000A000000A5B52464D3250695D0A000A41766192
:1000B000696C61626C6520636F6D6D616E64733A2B
:1000C0000A202031323320782020202020202D20AB
:1000D000546F67676C6520636F6E666967757261E0
:1000E00074696F6E206368616E67652070726F74EB
:1000F000656374696F6E2C20313D556E6C6F636B58
:1001000065640A20203C6E6E3E206920202020205D
:100110002D20736574206E6F646520494420287318
:1001200074616E64617264206E6F646520696473CB
:100130002061726520312E2E3236290A20203C6E35
:100140003E20622020202020202D20736574204D29
:10015000487A2062616E64202834203D2034333395
:100160002C2038203D203836382C2039203D2039AD
:100170003135290A20203C6E6E6E3E2067202020FB
:10018000202D20736574206E6574776F726B206705
:10019000726F7570202852464D3132206F6E6C7927
:1001A00020616C6C6F7773203231322C2030203D0F
:1001B00020616E79290A20203C6E3E206320202099
:1001C0002020202D2073657420636F6C6C65637430
:1001D000206D6F64652028616476616E6365642CB0
:1001E000206E6F726D616C6C792030290A20202E90
:1001F0002E2E2C3C6E6E3E2061202D2073656E6489
:100200002064617461207061636B657420746F2079
:100210006E6F6465203C6E6E3E2C2077697468209A
:1002200061636B0A20202E2E2E2C3C6E6E3E2073B6
:10023000202D2073656E6420646174612070616399
:100240006B657420746F206E6F6465203C6E6E3E2B
:100250002C206E6F2061636B0A20203C6E3E206C68
:100260002020202020202D207475726E2061637460
:100270006976697479204C4544206F6E2044494763
:1002800038206F6E206F72206F66660A0000C20110
:1002900000010005000500030000E1000001000F5F
:1002A000000F000D0000960000020019001A001750
:1002B00000127A00000700200021001D008070005D
:1002C000000B00230023002000004B000014003727
:1002D0000037003400403800001E004B004B00483F
:1002E00000802500003200720072007000C0120011
:1002F000006E00E900E900E60060090000E500D8B2
:1003000001D801D501B0040000D301B403B403B196
:100310000358020000B4036707670762072C010057
:10032000006707DD0EDD0EDA0E01020480402010AA
:1003300008040201020202010101010101010100A0
:100340003936003B38003A37FA02320B00031124E9
:100350001FBECFE5D2E0DEBFCDBF10E0A0E6B0E02B
:10036000E2E8FAE102C005900D92A23AB107D9F78E
:1003700011E0A2EAB0E001C01D92AF38B107E1F789
:1003800013E0CCE4D3E003C02297FE014BDBC8347A
:10039000D107D1F778D969CB33CE8627682F6295FC
:1003A0006827062E669566956025062E669560255B
:1003B0006770082E892F669507946795902D86277C
:1003C000069467959025862708951F93CF93DF9312
:1003D000EC01FE011491112381F01A3031F440E058
:1003E00050E06DE085ED90E05BDA40E050E0612F99
:1003F00085ED90E055DA2196ECCFDF91CF911F91FA
:100400000895CF93DF936091D00080E290E01FDBEE
:100410006091D10081E290E01ADB6091D20082E22B
:1004200090E015DB6091D0008FEF9FEFB6DF609119
:10043000D100B3DF6091D200B0DF9093D4008093FD
:10044000D300C3E2D0E060E0CE0101DB60E0809148
:10045000D3009091D400A1DF8093D3009093D40077
:100460002196CE33D10579F7682F8EE390E0EFDA4D
:100470006091D4008FE390E0EADA81E00CD781113B
:1004800003C083E990E0A1DF81E196ECDF91CF9199
:10049000CBC5CF938CEA90E098DF8BE790E095DFB7
:1004A00080E290E0CCDAC82F8093D00081E290E027
:1004B000C6DA8093D10082E290E0C1DA8093D20064
:1004C000CF712C2F30E0B901605C7F4F4AE050E0E3
:1004D00085ED90E0EDD988E790E077DF4AE050E0E5
:1004E0006C2F85ED90E0F7D98091D00085FF05C095
:1004F00066E670E085ED90E009D985E790E065DF7C
:100500004AE050E06091D10085ED90E0E4D981E7C8
:1005100090E05BDFE091D000F0E086E0F595E795B4
:100520008A95E1F7EE0FFF1FE259FF4F608171815D
:100530004AE050E085ED90E0D4D98BE690E045DFCD
:1005400083E690E042DF4AE050E06091D20085ED22
:1005500090E0F6D981E09FD681E196ECCF9164C519
:10056000CF93C82F61E088E0E0D76C2F88E0CF916F
:10057000FAC781E0F5DF60E087E0D7D761E083E08C
:10058000D4D740E855E260E070E085ED90E0C4D358
:1005900081EA90E01ADF81E07ED6882381F080E254
:1005A00090E04DDA8093D00081E290E048DA8093C9
:1005B000D10082E290E043DA8093D2000DC081E85E
:1005C0008093D00082ED8093D10081E08093D200AF
:1005D00042ED62E0FCD515DF81E196EC25D559DFCF
:1005E00060ED77E080E090E067D789E490EC1CD57F
:1005F00080E0B6CF20E043E067E085ED90E06DC39A
:1006000085ED90E029C4EF92FF920F931F93CF9353
:10061000DF9385ED90E0B5D1892B09F4C1C085ED5C
:1006200090E074D1C82F80ED8C0F8A3048F480910F
:10063000CE006AE092D980538C0F8093CE00B0C078
:10064000CC3289F4E091B900E43150F481E08E0FAE
:100650008093B900F0E0E654FF4F8091CE00808394
:100660001092CE009DC08FE98C0F8A3108F095C0A2
:1006700082E590E0AADE6091CE0070E04AE050E0B2
:1006800085ED90E015D940E050E06C2F85ED90E0CD
:1006900048D94C2F552747FD5095652F752FFA01E6
:1006A000E156F109E831F10518F4EF5EFF4F0994C6
:1006B000F0DE67C08091CE008B3709F062C081E028
:1006C0009091D200911180E08093D2000EC0809171
:1006D000D200882309F455C08091CE008F7190918B
:1006E000D000907E890F8093D0008BDE4AC080912D
:1006F000D200882309F445C08091CE00883021F0D3
:10070000893021F483E003C082E001C081E080935E
:10071000CE008295880F880F807C9091D0009F73C7
:10072000E1CF8091D200882361F18091CE00809347
:10073000D100DBCF8091D200882319F19091CE00B7
:100740008091D000992311F08062CDCF8F7DCBCFE7
:10075000C093CF004091B9004093B8008091CE0083
:100760008093B70050E06AEB70E082EA90E05ED9D7
:1007700008C08091CE00F4DE04C08091CE0080934A
:10078000B6001092B9001092CE0084E1EAEBF0E0DE
:10079000DF011D928A95E9F703C0C1320CF079DEC2
:1007A0004BD4882389F08091780190917901892B2D
:1007B000A1F00AC085ED90E099D8FF2019F08AE5F4
:1007C00090E003DE80E0CCDE8091CF00882309F446
:1007D00096C09BD4811165C092C0E090330181E046
:1007E000BFDE8091320185FF10C08091320187FD0C
:1007F0000CC08091D00085FD08C0CBE086D481116B
:100800003BC0C15009F04BC037C0F12C8091D100E2
:1008100081110DC068E670E085ED90E077D76091BA
:10082000310170E04AE050E085ED90E041D840E0D1
:1008300050E060E285ED90E033D8609132016F7155
:1008400070E04AE050E085ED90E032D804E311E03A
:10085000E8018C2F801B8E1508F0ACCF40E050E0F3
:1008600060E285ED90E01CD8699170E04AE050E0CC
:1008700085ED90E01DD8EDCF8091320186FD0DC051
:10088000809132018F71806C40E060E070E07CD438
:1008900082E085D4FF24F394B9CF80E8F5CFCCD3A0
:1008A000ADCF81E05DDE85E590E08FDD6091B80041
:1008B00070E04AE050E085ED90E0FAD76BE670E03A
:1008C00085ED90E026D88091CF008136B1F080E0B0
:1008D0009091B700992311F09064892B4091B80052
:1008E00062EA70E051D41092CF0080E0DF91CF91A6
:1008F0001F910F91FF90EF9033CE80E2E9CFDF910F
:10090000CF911F910F91FF90EF90089520912901B1
:1009100030912A0128173907B9F49091E7008091A6
:10092000E800981789F0E091E700F0E0E751FF4F09
:1009300080812091E70030E02F5F3F4F2F733327F6
:100940002093E70090E008958FEF9FEF08952091A6
:10095000290130912A012817390781F49091E70085
:100960008091E800981751F0E091E700F0E0E7513E
:10097000FF4F8081992787FD909508958FEF9FEF16
:1009800008952091290130912A012817390769F427
:100990008091E8002091E70090E0805C9F4F821BEF
:1009A000910960E470E007D8089580E090E0089530
:1009B0002091290130912A012817390739F48FB77E
:1009C000F8941092E8001092E7008FBF0895DC01C0
:1009D0001796ED91FC911897208116968C91809531
:1009E00082238083089520E001972FEF8F3F9207A5
:1009F000D9F708952091290130912A012817390744
:100A000089F0FC0121892E7F218B2FB7F894109259
:100A1000E8001092E70090932A01809329012FBFEC
:100A200081E0089580E00895EF92FF920F931F9365
:100A3000CF93DF93EC018989EC81FD819B8181FF5C
:100A400004C08081892329F444C08081892309F06E
:100A500040C089859A85C7DF08E010E0EE24E39462
:100A6000F12C8B859C85BFDFEC81FD8180819B8192
:100A7000892311F0FE2803C08E2D8095F822EE0CFC
:100A8000015011090115110561F78D859E85ABDFB8
:100A9000898981FDF0948091E8002091E70090E041
:100AA00001968F73992730E08217930779F0E091D0
:100AB000E800F0E0E751FF4FF0828091E80090E01D
:100AC00001968F7399278093E80003C0898981601C
:100AD000898BDF91CF911F910F91FF90EF90089537
:100AE000611101C074CFDC011796ED91FC9118974C
:100AF000208116968C91282B20830895DF92EF9207
:100B0000FF920F931F93CF93DF93EC01E62E8F8517
:100B10009889892B09F443C0DFB6F89469896695F2
:100B20006170CE01DDDF8F85988904965CDF89894D
:100B300008E010E0FF24F39481FF15C08F2D8E2173
:100B400019F0CE0144DF03C061E0CE01C9DF8F851B
:100B5000988949DFFF0C015011090115110571F742
:100B6000CE0135DF15C08F2D8E2121F061E0CE0141
:100B7000B7DF02C0CE012BDF8F85988934DFFF0CF1
:100B8000015011090115110571F761E0CE01A8DFCF
:100B9000DFBE8F85988927DF81E090E002C080E08A
:100BA00090E0DF91CF911F910F91FF90EF90DF9038
:100BB00008958091290190912A01009709F034CF7E
:100BC00008951F920F920FB60F9211242F933F9307
:100BD0004F935F936F937F938F939F93AF93BF9345
:100BE000EF93FF93E6DFFF91EF91BF91AF919F915C
:100BF0008F917F916F915F914F913F912F910F90C6
:100C00000FBE0F901F9018951F920F920FB60F9264
:100C100011242F933F934F935F936F937F938F9301
:100C20009F93AF93BF93EF93FF93C3DFFF91EF9138
:100C3000BF91AF919F918F917F916F915F914F91F4
:100C40003F912F910F900FBE0F901F9018951F93FB
:100C5000CF93DF93EC01162F61E0812F66D461E022
:100C6000812F81D4812F90E0FC01E75DFC4FE4915E
:100C7000EE83FC01EC5CFC4FE491F0E0EE5BFC4F9A
:100C8000E491F0E0F887EF83DF91CF911F91089511
:100C90001F93CF93DF93EC01162F60E0812F45D493
:100CA000898981FD03C061E0812F5DD41A83812F82
:100CB00090E0FC01E75DFC4FE491EB83FC01EC5C10
:100CC000FC4FE491F0E0E15CFC4FE491F0E0FD8347
:100CD000EC83DF91CF911F9108951F93CF93DF9302
:100CE000EC01162F8AE790E0998388831A8619868B
:100CF0001C861B861E861D86188A1F8689898E7F04
:100D000020FB81F9898B642FCE01A1DF612FCE01F9
:100D1000DF91CF911F91BCCF0F931F93CF93DF93A0
:100D2000EC01188A1F861E861D861C861B86ADE870
:100D3000B2E080E090E0FD0105911591259134919C
:100D4000041715072607370701F56CE070E00ED68B
:100D5000FC01EF56FD4F259134913A872987FC011C
:100D6000ED56FD4F259134913C872B87FC01EB56C6
:100D7000FD4F259134913E872D8789569D4FFC016B
:100D800085919491988B8F8708C001961C968D3021
:100D9000910509F0D0CF1A8619868D859E85892BFD
:100DA00081F19A819B3050F52BB7933010F480E29B
:100DB00001C080E1822B8BBF2A81233028F02B30A9
:100DC00030F4E2E3F0E005C0E0E4F0E002C0E0E08F
:100DD000F0E03081233030F481E001C0880F2A95A3
:100DE000EAF70AC08AE090E0821B910991E001C015
:100DF000990F8A95EAF7892F832B80838F859889AD
:100E0000F2DDCE01DF91CF911F910F91F3CDFC0167
:100E100042814B3000F5433018F4E0E4F0E002C0CA
:100E2000E2E3F0E05081433040F481E090E0042EB2
:100E300001C0880F0A94EAF70BC02AE030E0241BB7
:100E4000310981E090E0022E01C0880F0A94EAF790
:100E500080958523808308952AE730E0FC01318363
:100E60002083D5CF8627682F62956827062E669542
:100E700066956025062E669560256770082E892F79
:100E8000669507946795902D86270694679590251B
:100E900086270895C1989FB998E031E123E13DB9D3
:100EA0002DB99150E1F72FB130E0322F22278FB9C1
:100EB00088E041E193E14DB99DB98150E1F78FB1EF
:100EC000C19AA901482BCA010895CF9380E090E010
:100ED000E1DF80917A01853081F580E090EBDADF07
:100EE000682F80917B01811104C090917C01911148
:100EF00071C0E0917B0181E08E0F80937B01F0E077
:100F0000EF5CFE4F60838091780190917901AADFB8
:100F100090937901809378018091330120917B0136
:100F200090E0049630E0821793070CF45EC0809145
:100F30007B01873408F059C05CC080917A0187FF3B
:100F400019C0E091330180917A0191E0980F90935C
:100F50007A01ED5FE80FF0E0EF5CFE4FC081809119
:100F60007801909179016C2F7DDF909379018093C6
:100F700078012CC080917A0191E0980F90937A01CA
:100F8000833001F154F48823B9F08130F1F4809179
:100F9000780190917901C92F19C0893059F08A30B0
:100FA000A1F4C0917C01909133018EEF891B809355
:100FB0007A010CC0CDE20AC080917801909179014C
:100FC000C82F04C08DE092E865DFCAEA8C2F90E05C
:100FD00098540DC0E0917B0181E08E0F80937B01DE
:100FE000F0E0EF5CFE4F908384CF8DE092E8CF91EC
:100FF00051CFCF910895C19AB99A61E081E0B3D2FF
:1010000061E081E092D261E085E08FD260E084E02F
:101010008CD261E086E089D280E18DB960E082E027
:1010200084D261E082E09FC22BB72F7B2BBF32DFDF
:101030002BB720642BBF089580917A01853051F53C
:101040008091330120917B0190E0049630E082177B
:10105000930724F080917B018734E0F084E0809353
:101060007A0180913301833430F081E090E09093F5
:101070007901809378018091320186FF2AC0909196
:101080007D01892F8F718F3121F180913201892764
:101090008F71F9F080917A018430C9F41092330194
:1010A00010927B018FEF9FEF9093790180937801ED
:1010B00060917C01662329F0D5DE909379018093BD
:1010C000780185E080937A018DED92E8E3DE80E09F
:1010D00008958091780190917901892B49F4E091EC
:1010E0002B01F0912C01309719F080E009950BC08D
:1010F0008FEF9FEFDC0180932D0190932E01A09341
:101100002F01B093300181E0089580917A018530FC
:1011100089F480917B0181110DC080E090E084DF33
:1011200090FD08C08DE092E87FDF84E080937A0133
:1011300081E0089580E0089586FD05C0807E90914D
:101140007D019F71890F80933201E0912B01F09115
:101150002C01309711F081E009958FEF9FEF90936C
:101160007901809378018091780190917901609163
:101170007C0178DE909379018093780186E08093FA
:101180007A018DE392E886CECF93C82F4093330146
:1011900050E084E391E04AD48C2FCF91CDCF909151
:1011A0007A01943099F08823D1F395B7977E8330F4
:1011B00011F420E101C020E0922B95BF95B7906219
:1011C00095BF889595B79F7D95BFE9CF0895CF933B
:1011D000C62F80937D0140937C010DDF80E090E07D
:1011E00059DE85E092E856DE80E098EB53DE82E03F
:1011F000EED1892B19F480E090E0F8CF8C2F90E0AD
:10120000B4E0880F991FBA95E1F7876C906842DEC9
:1012100080E496EA3FDE86E096EC3CDE82EA94E9E2
:1012200039DE8CEA92EC36DEC0917C01CC2339F0B9
:1012300083E89AEC2FDE8C2F90E09E6C05C08BE843
:101240009AEC28DE8DE29EEC25DE83E894EC22DE2B
:1012500080E598E91FDE87E79CEC1CDE80E090EEDD
:1012600019DE80E098EC16DE89E490EC13DE84E071
:1012700080937A0180917D018F7139F040E050E0D8
:1012800065E677E080E053D002C080E061D08091D5
:101290007D01CF910895FF920F931F93CF93DF931A
:1012A000F82EC0E2D0E00FEF1FEFCE01C8D3682FB9
:1012B000C801D8DD8C012196C034D105B1F7009763
:1012C00079F5C0E2D0E000E010E0CE01B8D3682F9D
:1012D0008C2F805261F0813061F0662379F0FF201D
:1012E00049F040E050E089E891E0DAD203C0162FDF
:1012F00001C0062F2196CE33D10539F7FF2019F012
:1013000089E891E0F3D2612F70E0C6E075956795AA
:10131000CA95E1F7402F812F5ADF812F8F7101C0CD
:1013200080E0DF91CF911F910F91FF90089581117F
:101330000EC08FB7F89470937F0160937E018FBFCA
:1013400085B78C7F842B85BF8BB780648BBF089556
:10135000811107C08BB78F7B8BBF10927F011092DA
:101360007E0108951F920F920FB60F9211242F93B2
:101370003F934F935F936F937F938F939F93AF931D
:10138000BF93EF93FF9380917E0190917F01892B12
:1013900029F0E0917E01F0917F010995FF91EF9195
:1013A000BF91AF919F918F917F916F915F914F917D
:1013B0003F912F910F900FBE0F901F9018958EB5F3
:1013C000887F8EBD8FB58C7F81608FBD8EB5877E07
:1013D0008EBD8EB5887F83608EBD08951F920F925B
:1013E0000FB60F9211242F933F938F939F93AF9338
:1013F000BF938091810190918201A0918301B0916E
:1014000084013091800126E0230F2D3730F029E848
:10141000230F0396A11DB11D03C00296A11DB11D8E
:10142000209380018093810190938201A093830196
:10143000B09384018091850190918601A0918701EC
:10144000B09188010196A11DB11D809385019093F3
:101450008601A0938701B0938801BF91AF919F91BE
:101460008F913F912F910F900FBE0F901F90189565
:101470003FB7F8948091850190918601A0918701F2
:10148000B091880122B708B600FE05C02F3F19F0C1
:101490000196A11DB11D3FBF6627782F892F9A2F76
:1014A000620F711D811D911D43E0660F771F881F1C
:1014B000991F4A95D1F70895CF92DF92EF92FF924C
:1014C000CF93DF936B017C01D3DFEB01C114D10417
:1014D000E104F10471F0CCDF6C1B7D0B683E7340BE
:1014E000A8F381E0C81AD108E108F108C851DC4F1F
:1014F000EDCFDF91CF91FF90EF90DF90CF900895E7
:10150000789480B7836080BF83B7877F83BF83B7BA
:10151000887F836083BF89B7816089BF50DF86B1D0
:10152000887F866086B9379A089590E0FC01E75D70
:10153000FC4F2491FC01EC5CFC4FE491EE2391F014
:10154000F0E0EB5BFC4FA491B0E09FB7611105C0E8
:10155000F8948C912095822303C0F8948C91822B6F
:101560008C939FBF0895A82FB0E0FD01E75DFC4F6D
:101570009491FD01EC5CFC4FE491EE2339F1823053
:1015800019F480B78F7304C0833021F480B78F7C47
:1015900080BF0AC0843019F48FB58F7304C08530C2
:1015A00019F48FB58F7C8FBDF0E0EE5BFC4FA491FA
:1015B000B0E02FB7611105C0F8948C919095892304
:1015C00003C0F8948C91892B8C932FBF0895282FFA
:1015D00030E0F901E75DFC4F9491F901EC5CFC4FC0
:1015E000E491EE2309F1823019F480B78F7304C0BF
:1015F000833021F480B78F7C80BF0AC0843019F417
:101600008FB58F7304C0853019F48FB58F7C8FBD73
:10161000F0E0E15CFC4FE491F0E02081292381E0DF
:1016200090E021F480E0089580E090E0089508952E
:10163000089580E090E008958FEF9FEF08958FEF79
:101640009FEF08950895DC0112968D919C91139758
:10165000DC01ED91FC910280F381E02D099581E0A0
:1016600090E00895EDE8F1E08CE890E091838083CC
:1016700084E990E090938A0180938901F0938C0132
:10168000E0938B0108953CDF74D7BDD7FECF0F9355
:101690001F93CF93DF93EC018B01F80161918F01D0
:1016A000662341F0E881F9810190F081E02DCE01BF
:1016B0000995F3CFDF91CF911F910F910895EF928C
:1016C000FF920F931F93CF93DF937C018A01EB016D
:1016D000060F171FC017D10751F06991D701ED917F
:1016E000FC910190F081E02DC7010995F3CFDF91C6
:1016F000CF911F910F91FF90EF900895DC01ED9134
:10170000FC910190F081E02D642F0994DC01ED91B2
:10171000FC910280F381E02D09944F925F926F92C9
:101720007F928F929F92AF92BF92CF92DF92EF9271
:10173000FF920F931F93CF93DF93CDB7DEB7A097A0
:101740000FB6F894DEBF0FBECDBF5C014115510549
:1017500061057105D9F440E350E060E070E0A096C7
:101760000FB6F894DEBF0FBECDBFDF91CF911F91B2
:101770000F91FF90EF90DF90CF90BF90AF909F9030
:101780008F907F906F905F904F90B8CF8E010F5FDA
:101790001F4FC12CD12C76014801422E512C612CB7
:1017A000712C8FEFC81AD80AE80AF80ACB01BA01DF
:1017B000A301920113D1CA01F80161938F01A9011C
:1017C000BC01411551056105710559F7F1E0CF1ACA
:1017D000D108E108F108F401EC0DFD1D80818A308B
:1017E00010F440E301C047E3480F552747FD5095EB
:1017F000652F752FC50182DF81E0C81AD108E10885
:10180000F108EFEFCE16DE06EE06FE0621F7A096F3
:101810000FB6F894DEBF0FBECDBFDF91CF911F9101
:101820000F91FF90EF90DF90CF90BF90AF909F907F
:101830008F907F906F905F904F900895CF92DF923E
:10184000EF92FF92CF93DF93EC016A017B012115A8
:10185000310539F4DF91CF91FF90EF90DF90CF9079
:101860004DCF2A30310591F477FF0FC020E030E0F2
:101870004DE250E060E070E0E1DFF094E094D0945D
:10188000C094C11CD11CE11CF11C2AE0B701A601C7
:10189000CE01DF91CF91FF90EF90DF90CF903DCFC1
:1018A0009A01462F552747FD5095652F752FC6CFB6
:1018B0009A01AB01662757FD6095762FBFCF2115A2
:1018C000310541F4DC01ED91FC910190F081E02DB6
:1018D000642F099422CF9A01462F50E060E070E017
:1018E000EECF9A01AB0160E070E0E9CFCF93DF93D8
:1018F000EC014DE050E060E070E000DF4AE050E0D5
:1019000060E070E0CE01FADE82E090E0DF91CF91FE
:101910000895CF93DF93EC01F9DECE01DF91CF91F3
:10192000E5CFCF93DF93EC019A01462F552747FD72
:101930005095652F752F82DFCE01DF91CF91D6CFE5
:10194000CF93DF93EC019A01462F50E060E070E006
:10195000B6DFCE01DF91CF91C9CF002480FD060E06
:10196000660F11F08695D1F7802D08950024552734
:1019700004C0080E591F880F991F009729F076950B
:101980006795B8F37105B9F7802D952F0895AA1BB7
:10199000BB1B51E107C0AA1FBB1FA617B70710F05A
:1019A000A61BB70B881F991F5A95A9F7809590958C
:1019B000BC01CD01089597FB072E16F4009406D0C4
:1019C00077FD08D0E4DF07FC05D03EF490958195C3
:1019D0009F4F0895709561957F4F0895A1E21A2E4B
:1019E000AA1BBB1BFD010DC0AA1FBB1FEE1FFF1FC3
:1019F000A217B307E407F50720F0A21BB30BE40B13
:101A0000F50B661F771F881F991F1A9469F7609559
:101A10007095809590959B01AC01BD01CF01089513
:101A2000EE0FFF1F0590F491E02D0994FB01DC01FE
:101A300002C001900D9241505040D8F70895E199AD
:101A4000FECF9FBB8EBBE09A99278DB30895262FBA
:101A5000E199FECF1CBA9FBB8EBB2DBB0FB6F8948D
:101A6000E29AE19A0FBE0196089513E0CCE4D3E028
:101A700003C0FE01D7DF2296CE34D107D1F7F89408
:021A8000FFCF96
:101A820000008F0120002A004720002062003B0155
:101A9200B10164039303000000007E05470B5F0B56
:101AA200C1048604A704D80400000000170B180B19
:101AB20000000000230B470B5F0B190B1F0B1C0BC5
:021AC200220BF5
:00000001FF
